{
  "contractName": "OZUToken",
  "abi": [
    {
      "anonymous": false,
      "inputs": [
        {
          "indexed": true,
          "internalType": "address",
          "name": "owner",
          "type": "address"
        },
        {
          "indexed": true,
          "internalType": "address",
          "name": "spender",
          "type": "address"
        },
        {
          "indexed": false,
          "internalType": "uint256",
          "name": "value",
          "type": "uint256"
        }
      ],
      "name": "Approval",
      "type": "event"
    },
    {
      "anonymous": false,
      "inputs": [
        {
          "indexed": true,
          "internalType": "address",
          "name": "from",
          "type": "address"
        },
        {
          "indexed": true,
          "internalType": "address",
          "name": "to",
          "type": "address"
        },
        {
          "indexed": false,
          "internalType": "uint256",
          "name": "value",
          "type": "uint256"
        }
      ],
      "name": "Transfer",
      "type": "event"
    },
    {
      "inputs": [
        {
          "internalType": "address",
          "name": "owner",
          "type": "address"
        },
        {
          "internalType": "address",
          "name": "spender",
          "type": "address"
        }
      ],
      "name": "allowance",
      "outputs": [
        {
          "internalType": "uint256",
          "name": "",
          "type": "uint256"
        }
      ],
      "stateMutability": "view",
      "type": "function",
      "constant": true
    },
    {
      "inputs": [
        {
          "internalType": "address",
          "name": "spender",
          "type": "address"
        },
        {
          "internalType": "uint256",
          "name": "amount",
          "type": "uint256"
        }
      ],
      "name": "approve",
      "outputs": [
        {
          "internalType": "bool",
          "name": "",
          "type": "bool"
        }
      ],
      "stateMutability": "nonpayable",
      "type": "function"
    },
    {
      "inputs": [
        {
          "internalType": "address",
          "name": "account",
          "type": "address"
        }
      ],
      "name": "balanceOf",
      "outputs": [
        {
          "internalType": "uint256",
          "name": "",
          "type": "uint256"
        }
      ],
      "stateMutability": "view",
      "type": "function",
      "constant": true
    },
    {
      "inputs": [],
      "name": "decimals",
      "outputs": [
        {
          "internalType": "uint8",
          "name": "",
          "type": "uint8"
        }
      ],
      "stateMutability": "view",
      "type": "function",
      "constant": true
    },
    {
      "inputs": [
        {
          "internalType": "address",
          "name": "spender",
          "type": "address"
        },
        {
          "internalType": "uint256",
          "name": "subtractedValue",
          "type": "uint256"
        }
      ],
      "name": "decreaseAllowance",
      "outputs": [
        {
          "internalType": "bool",
          "name": "",
          "type": "bool"
        }
      ],
      "stateMutability": "nonpayable",
      "type": "function"
    },
    {
      "inputs": [
        {
          "internalType": "address",
          "name": "spender",
          "type": "address"
        },
        {
          "internalType": "uint256",
          "name": "addedValue",
          "type": "uint256"
        }
      ],
      "name": "increaseAllowance",
      "outputs": [
        {
          "internalType": "bool",
          "name": "",
          "type": "bool"
        }
      ],
      "stateMutability": "nonpayable",
      "type": "function"
    },
    {
      "inputs": [],
      "name": "name",
      "outputs": [
        {
          "internalType": "string",
          "name": "",
          "type": "string"
        }
      ],
      "stateMutability": "view",
      "type": "function",
      "constant": true
    },
    {
      "inputs": [],
      "name": "symbol",
      "outputs": [
        {
          "internalType": "string",
          "name": "",
          "type": "string"
        }
      ],
      "stateMutability": "view",
      "type": "function",
      "constant": true
    },
    {
      "inputs": [],
      "name": "totalSupply",
      "outputs": [
        {
          "internalType": "uint256",
          "name": "",
          "type": "uint256"
        }
      ],
      "stateMutability": "view",
      "type": "function",
      "constant": true
    },
    {
      "inputs": [
        {
          "internalType": "address",
          "name": "recipient",
          "type": "address"
        },
        {
          "internalType": "uint256",
          "name": "amount",
          "type": "uint256"
        }
      ],
      "name": "transfer",
      "outputs": [
        {
          "internalType": "bool",
          "name": "",
          "type": "bool"
        }
      ],
      "stateMutability": "nonpayable",
      "type": "function"
    },
    {
      "inputs": [
        {
          "internalType": "address",
          "name": "sender",
          "type": "address"
        },
        {
          "internalType": "address",
          "name": "recipient",
          "type": "address"
        },
        {
          "internalType": "uint256",
          "name": "amount",
          "type": "uint256"
        }
      ],
      "name": "transferFrom",
      "outputs": [
        {
          "internalType": "bool",
          "name": "",
          "type": "bool"
        }
      ],
      "stateMutability": "nonpayable",
      "type": "function"
    },
    {
      "inputs": [
        {
          "internalType": "string",
          "name": "_name",
          "type": "string"
        },
        {
          "internalType": "string",
          "name": "_symbol",
          "type": "string"
        },
        {
          "internalType": "uint256",
          "name": "initialSupply",
          "type": "uint256"
        }
      ],
      "name": "initialize",
      "outputs": [],
      "stateMutability": "nonpayable",
      "type": "function"
    }
  ],
  "bytecode": "0x608060405234801561001057600080fd5b50611c67806100206000396000f3fe608060405234801561001057600080fd5b50600436106100b45760003560e01c806370a082311161007157806370a08231146101a357806395d89b41146101d3578063a457c2d7146101f1578063a9059cbb14610221578063b119490e14610251578063dd62ed3e1461026d576100b4565b806306fdde03146100b9578063095ea7b3146100d757806318160ddd1461010757806323b872dd14610125578063313ce567146101555780633950935114610173575b600080fd5b6100c161029d565b6040516100ce9190611556565b60405180910390f35b6100f160048036038101906100ec91906112df565b61032f565b6040516100fe919061153b565b60405180910390f35b61010f61034d565b60405161011c9190611698565b60405180910390f35b61013f600480360381019061013a9190611290565b610357565b60405161014c919061153b565b60405180910390f35b61015d610458565b60405161016a91906116b3565b60405180910390f35b61018d600480360381019061018891906112df565b610461565b60405161019a919061153b565b60405180910390f35b6101bd60048036038101906101b8919061122b565b61050d565b6040516101ca9190611698565b60405180910390f35b6101db610556565b6040516101e89190611556565b60405180910390f35b61020b600480360381019061020691906112df565b6105e8565b604051610218919061153b565b60405180910390f35b61023b600480360381019061023691906112df565b6106dc565b604051610248919061153b565b60405180910390f35b61026b6004803603810190610266919061131b565b6106fa565b005b61028760048036038101906102829190611254565b6107f1565b6040516102949190611698565b60405180910390f35b6060603680546102ac90611861565b80601f01602080910402602001604051908101604052809291908181526020018280546102d890611861565b80156103255780601f106102fa57610100808354040283529160200191610325565b820191906000526020600020905b81548152906001019060200180831161030857829003601f168201915b5050505050905090565b600061034361033c610878565b8484610880565b6001905092915050565b6000603554905090565b6000610364848484610a4b565b6000603460008673ffffffffffffffffffffffffffffffffffffffff1673ffffffffffffffffffffffffffffffffffffffff16815260200190815260200160002060006103af610878565b73ffffffffffffffffffffffffffffffffffffffff1673ffffffffffffffffffffffffffffffffffffffff1681526020019081526020016000205490508281101561042f576040517f08c379a0000000000000000000000000000000000000000000000000000000008152600401610426906115f8565b60405180910390fd5b61044c8561043b610878565b85846104479190611796565b610880565b60019150509392505050565b60006012905090565b600061050361046e610878565b84846034600061047c610878565b73ffffffffffffffffffffffffffffffffffffffff1673ffffffffffffffffffffffffffffffffffffffff16815260200190815260200160002060008873ffffffffffffffffffffffffffffffffffffffff1673ffffffffffffffffffffffffffffffffffffffff168152602001908152602001600020546104fe9190611740565b610880565b6001905092915050565b6000603360008373ffffffffffffffffffffffffffffffffffffffff1673ffffffffffffffffffffffffffffffffffffffff168152602001908152602001600020549050919050565b60606037805461056590611861565b80601f016020809104026020016040519081016040528092919081815260200182805461059190611861565b80156105de5780601f106105b3576101008083540402835291602001916105de565b820191906000526020600020905b8154815290600101906020018083116105c157829003601f168201915b5050505050905090565b600080603460006105f7610878565b73ffffffffffffffffffffffffffffffffffffffff1673ffffffffffffffffffffffffffffffffffffffff16815260200190815260200160002060008573ffffffffffffffffffffffffffffffffffffffff1673ffffffffffffffffffffffffffffffffffffffff168152602001908152602001600020549050828110156106b4576040517f08c379a00000000000000000000000000000000000000000000000000000000081526004016106ab90611658565b60405180910390fd5b6106d16106bf610878565b8585846106cc9190611796565b610880565b600191505092915050565b60006106f06106e9610878565b8484610a4b565b6001905092915050565b600060019054906101000a900460ff1680610720575060008054906101000a900460ff16155b61075f576040517f08c379a0000000000000000000000000000000000000000000000000000000008152600401610756906115d8565b60405180910390fd5b60008060019054906101000a900460ff1615905080156107af576001600060016101000a81548160ff02191690831515021790555060016000806101000a81548160ff0219169083151502179055505b6107b98484610ccd565b6107ca6107c4610878565b83610dba565b80156107eb5760008060016101000a81548160ff0219169083151502179055505b50505050565b6000603460008473ffffffffffffffffffffffffffffffffffffffff1673ffffffffffffffffffffffffffffffffffffffff16815260200190815260200160002060008373ffffffffffffffffffffffffffffffffffffffff1673ffffffffffffffffffffffffffffffffffffffff16815260200190815260200160002054905092915050565b600033905090565b600073ffffffffffffffffffffffffffffffffffffffff168373ffffffffffffffffffffffffffffffffffffffff1614156108f0576040517f08c379a00000000000000000000000000000000000000000000000000000000081526004016108e790611638565b60405180910390fd5b600073ffffffffffffffffffffffffffffffffffffffff168273ffffffffffffffffffffffffffffffffffffffff161415610960576040517f08c379a000000000000000000000000000000000000000000000000000000000815260040161095790611598565b60405180910390fd5b80603460008573ffffffffffffffffffffffffffffffffffffffff1673ffffffffffffffffffffffffffffffffffffffff16815260200190815260200160002060008473ffffffffffffffffffffffffffffffffffffffff1673ffffffffffffffffffffffffffffffffffffffff168152602001908152602001600020819055508173ffffffffffffffffffffffffffffffffffffffff168373ffffffffffffffffffffffffffffffffffffffff167f8c5be1e5ebec7d5bd14f71427d1e84f3dd0314c0f7b2291e5b200ac8c7c3b92583604051610a3e9190611698565b60405180910390a3505050565b600073ffffffffffffffffffffffffffffffffffffffff168373ffffffffffffffffffffffffffffffffffffffff161415610abb576040517f08c379a0000000000000000000000000000000000000000000000000000000008152600401610ab290611618565b60405180910390fd5b600073ffffffffffffffffffffffffffffffffffffffff168273ffffffffffffffffffffffffffffffffffffffff161415610b2b576040517f08c379a0000000000000000000000000000000000000000000000000000000008152600401610b2290611578565b60405180910390fd5b610b36838383610f0f565b6000603360008573ffffffffffffffffffffffffffffffffffffffff1673ffffffffffffffffffffffffffffffffffffffff16815260200190815260200160002054905081811015610bbd576040517f08c379a0000000000000000000000000000000000000000000000000000000008152600401610bb4906115b8565b60405180910390fd5b8181610bc99190611796565b603360008673ffffffffffffffffffffffffffffffffffffffff1673ffffffffffffffffffffffffffffffffffffffff1681526020019081526020016000208190555081603360008573ffffffffffffffffffffffffffffffffffffffff1673ffffffffffffffffffffffffffffffffffffffff1681526020019081526020016000206000828254610c5b9190611740565b925050819055508273ffffffffffffffffffffffffffffffffffffffff168473ffffffffffffffffffffffffffffffffffffffff167fddf252ad1be2c89b69c2b068fc378daa952ba7f163c4a11628f55a4df523b3ef84604051610cbf9190611698565b60405180910390a350505050565b600060019054906101000a900460ff1680610cf3575060008054906101000a900460ff16155b610d32576040517f08c379a0000000000000000000000000000000000000000000000000000000008152600401610d29906115d8565b60405180910390fd5b60008060019054906101000a900460ff161590508015610d82576001600060016101000a81548160ff02191690831515021790555060016000806101000a81548160ff0219169083151502179055505b610d8a610f14565b610d948383610fed565b8015610db55760008060016101000a81548160ff0219169083151502179055505b505050565b600073ffffffffffffffffffffffffffffffffffffffff168273ffffffffffffffffffffffffffffffffffffffff161415610e2a576040517f08c379a0000000000000000000000000000000000000000000000000000000008152600401610e2190611678565b60405180910390fd5b610e3660008383610f0f565b8060356000828254610e489190611740565b9250508190555080603360008473ffffffffffffffffffffffffffffffffffffffff1673ffffffffffffffffffffffffffffffffffffffff1681526020019081526020016000206000828254610e9e9190611740565b925050819055508173ffffffffffffffffffffffffffffffffffffffff16600073ffffffffffffffffffffffffffffffffffffffff167fddf252ad1be2c89b69c2b068fc378daa952ba7f163c4a11628f55a4df523b3ef83604051610f039190611698565b60405180910390a35050565b505050565b600060019054906101000a900460ff1680610f3a575060008054906101000a900460ff16155b610f79576040517f08c379a0000000000000000000000000000000000000000000000000000000008152600401610f70906115d8565b60405180910390fd5b60008060019054906101000a900460ff161590508015610fc9576001600060016101000a81548160ff02191690831515021790555060016000806101000a81548160ff0219169083151502179055505b8015610fea5760008060016101000a81548160ff0219169083151502179055505b50565b600060019054906101000a900460ff1680611013575060008054906101000a900460ff16155b611052576040517f08c379a0000000000000000000000000000000000000000000000000000000008152600401611049906115d8565b60405180910390fd5b60008060019054906101000a900460ff1615905080156110a2576001600060016101000a81548160ff02191690831515021790555060016000806101000a81548160ff0219169083151502179055505b82603690805190602001906110b89291906110f6565b5081603790805190602001906110cf9291906110f6565b5080156110f15760008060016101000a81548160ff0219169083151502179055505b505050565b82805461110290611861565b90600052602060002090601f016020900481019282611124576000855561116b565b82601f1061113d57805160ff191683800117855561116b565b8280016001018555821561116b579182015b8281111561116a57825182559160200191906001019061114f565b5b509050611178919061117c565b5090565b5b8082111561119557600081600090555060010161117d565b5090565b60006111ac6111a7846116f3565b6116ce565b9050828152602081018484840111156111c457600080fd5b6111cf84828561181f565b509392505050565b6000813590506111e681611c03565b92915050565b600082601f8301126111fd57600080fd5b813561120d848260208601611199565b91505092915050565b60008135905061122581611c1a565b92915050565b60006020828403121561123d57600080fd5b600061124b848285016111d7565b91505092915050565b6000806040838503121561126757600080fd5b6000611275858286016111d7565b9250506020611286858286016111d7565b9150509250929050565b6000806000606084860312156112a557600080fd5b60006112b3868287016111d7565b93505060206112c4868287016111d7565b92505060406112d586828701611216565b9150509250925092565b600080604083850312156112f257600080fd5b6000611300858286016111d7565b925050602061131185828601611216565b9150509250929050565b60008060006060848603121561133057600080fd5b600084013567ffffffffffffffff81111561134a57600080fd5b611356868287016111ec565b935050602084013567ffffffffffffffff81111561137357600080fd5b61137f868287016111ec565b925050604061139086828701611216565b9150509250925092565b6113a3816117dc565b82525050565b60006113b482611724565b6113be818561172f565b93506113ce81856020860161182e565b6113d781611951565b840191505092915050565b60006113ef60238361172f565b91506113fa82611962565b604082019050919050565b600061141260228361172f565b915061141d826119b1565b604082019050919050565b600061143560268361172f565b915061144082611a00565b604082019050919050565b6000611458602e8361172f565b915061146382611a4f565b604082019050919050565b600061147b60288361172f565b915061148682611a9e565b604082019050919050565b600061149e60258361172f565b91506114a982611aed565b604082019050919050565b60006114c160248361172f565b91506114cc82611b3c565b604082019050919050565b60006114e460258361172f565b91506114ef82611b8b565b604082019050919050565b6000611507601f8361172f565b915061151282611bda565b602082019050919050565b61152681611808565b82525050565b61153581611812565b82525050565b6000602082019050611550600083018461139a565b92915050565b6000602082019050818103600083015261157081846113a9565b905092915050565b60006020820190508181036000830152611591816113e2565b9050919050565b600060208201905081810360008301526115b181611405565b9050919050565b600060208201905081810360008301526115d181611428565b9050919050565b600060208201905081810360008301526115f18161144b565b9050919050565b600060208201905081810360008301526116118161146e565b9050919050565b6000602082019050818103600083015261163181611491565b9050919050565b60006020820190508181036000830152611651816114b4565b9050919050565b60006020820190508181036000830152611671816114d7565b9050919050565b60006020820190508181036000830152611691816114fa565b9050919050565b60006020820190506116ad600083018461151d565b92915050565b60006020820190506116c8600083018461152c565b92915050565b60006116d86116e9565b90506116e48282611893565b919050565b6000604051905090565b600067ffffffffffffffff82111561170e5761170d611922565b5b61171782611951565b9050602081019050919050565b600081519050919050565b600082825260208201905092915050565b600061174b82611808565b915061175683611808565b9250827fffffffffffffffffffffffffffffffffffffffffffffffffffffffffffffffff0382111561178b5761178a6118c4565b5b828201905092915050565b60006117a182611808565b91506117ac83611808565b9250828210156117bf576117be6118c4565b5b828203905092915050565b60006117d5826117e8565b9050919050565b60008115159050919050565b600073ffffffffffffffffffffffffffffffffffffffff82169050919050565b6000819050919050565b600060ff82169050919050565b82818337600083830152505050565b60005b8381101561184c578082015181840152602081019050611831565b8381111561185b576000848401525b50505050565b6000600282049050600182168061187957607f821691505b6020821081141561188d5761188c6118f3565b5b50919050565b61189c82611951565b810181811067ffffffffffffffff821117156118bb576118ba611922565b5b80604052505050565b7f4e487b7100000000000000000000000000000000000000000000000000000000600052601160045260246000fd5b7f4e487b7100000000000000000000000000000000000000000000000000000000600052602260045260246000fd5b7f4e487b7100000000000000000000000000000000000000000000000000000000600052604160045260246000fd5b6000601f19601f8301169050919050565b7f45524332303a207472616e7366657220746f20746865207a65726f206164647260008201527f6573730000000000000000000000000000000000000000000000000000000000602082015250565b7f45524332303a20617070726f766520746f20746865207a65726f20616464726560008201527f7373000000000000000000000000000000000000000000000000000000000000602082015250565b7f45524332303a207472616e7366657220616d6f756e742065786365656473206260008201527f616c616e63650000000000000000000000000000000000000000000000000000602082015250565b7f496e697469616c697a61626c653a20636f6e747261637420697320616c72656160008201527f647920696e697469616c697a6564000000000000000000000000000000000000602082015250565b7f45524332303a207472616e7366657220616d6f756e742065786365656473206160008201527f6c6c6f77616e6365000000000000000000000000000000000000000000000000602082015250565b7f45524332303a207472616e736665722066726f6d20746865207a65726f20616460008201527f6472657373000000000000000000000000000000000000000000000000000000602082015250565b7f45524332303a20617070726f76652066726f6d20746865207a65726f2061646460008201527f7265737300000000000000000000000000000000000000000000000000000000602082015250565b7f45524332303a2064656372656173656420616c6c6f77616e63652062656c6f7760008201527f207a65726f000000000000000000000000000000000000000000000000000000602082015250565b7f45524332303a206d696e7420746f20746865207a65726f206164647265737300600082015250565b611c0c816117ca565b8114611c1757600080fd5b50565b611c2381611808565b8114611c2e57600080fd5b5056fea2646970667358221220e7b2585b25708c0844b42c5f3464baacc05d2be7ae59d8b7240a73b442c7a65864736f6c63430008030033",
  "immutableReferences": {},
  "source": "// contracts/OZToken.sol\n// SPDX-License-Identifier: MIT\npragma solidity ^0.8.3;\n\nimport \"@openzeppelin/contracts-upgradeable/token/ERC20/ERC20Upgradeable.sol\";\nimport \"@openzeppelin/contracts-upgradeable/proxy/utils/Initializable.sol\";\n\ncontract OZUToken is Initializable, ERC20Upgradeable {\n\n    function initialize(string memory _name, string memory _symbol, uint256 initialSupply) initializer public {\n        __ERC20_init(_name, _symbol);\n        _mint(_msgSender(), initialSupply);\n    }\n}",
  "sourcePath": "/home/fushi/Desktop/public-repos/upgradeable-tokens-test/contracts/OZUToken.sol",
  "compiler": {
    "name": "solc",
    "version": "0.8.3+commit.8d00100c.Emscripten.clang"
  },
  "schemaVersion": "3.4.3",
  "updatedAt": "2021-09-02T13:05:22.947Z",
  "networkType": "ethereum",
  "devdoc": {
    "kind": "dev",
    "methods": {
      "allowance(address,address)": {
        "details": "See {IERC20-allowance}."
      },
      "approve(address,uint256)": {
        "details": "See {IERC20-approve}. Requirements: - `spender` cannot be the zero address."
      },
      "balanceOf(address)": {
        "details": "See {IERC20-balanceOf}."
      },
      "decimals()": {
        "details": "Returns the number of decimals used to get its user representation. For example, if `decimals` equals `2`, a balance of `505` tokens should be displayed to a user as `5,05` (`505 / 10 ** 2`). Tokens usually opt for a value of 18, imitating the relationship between Ether and Wei. This is the value {ERC20} uses, unless this function is overloaded; NOTE: This information is only used for _display_ purposes: it in no way affects any of the arithmetic of the contract, including {IERC20-balanceOf} and {IERC20-transfer}."
      },
      "decreaseAllowance(address,uint256)": {
        "details": "Atomically decreases the allowance granted to `spender` by the caller. This is an alternative to {approve} that can be used as a mitigation for problems described in {IERC20-approve}. Emits an {Approval} event indicating the updated allowance. Requirements: - `spender` cannot be the zero address. - `spender` must have allowance for the caller of at least `subtractedValue`."
      },
      "increaseAllowance(address,uint256)": {
        "details": "Atomically increases the allowance granted to `spender` by the caller. This is an alternative to {approve} that can be used as a mitigation for problems described in {IERC20-approve}. Emits an {Approval} event indicating the updated allowance. Requirements: - `spender` cannot be the zero address."
      },
      "name()": {
        "details": "Returns the name of the token."
      },
      "symbol()": {
        "details": "Returns the symbol of the token, usually a shorter version of the name."
      },
      "totalSupply()": {
        "details": "See {IERC20-totalSupply}."
      },
      "transfer(address,uint256)": {
        "details": "See {IERC20-transfer}. Requirements: - `recipient` cannot be the zero address. - the caller must have a balance of at least `amount`."
      },
      "transferFrom(address,address,uint256)": {
        "details": "See {IERC20-transferFrom}. Emits an {Approval} event indicating the updated allowance. This is not required by the EIP. See the note at the beginning of {ERC20}. Requirements: - `sender` and `recipient` cannot be the zero address. - `sender` must have a balance of at least `amount`. - the caller must have allowance for ``sender``'s tokens of at least `amount`."
      }
    },
    "version": 1
  },
  "userdoc": {
    "kind": "user",
    "methods": {},
    "version": 1
  }
}